:020000040800F2
:1000000024100020950200088902000889020008D7
:1000100089020008890200088902000880B400AF44
:10002000034B044A1A6000BFBD4680BC704700BF46
:10003000080000209D00000880B483B000AF786005
:100040007B68012B03D1064B064A1A6002E0044B81
:10005000054A1A6000BF0C37BD4680BC704700BF20
:10006000080000206D0000089D00000880B500AF6A
:10007000084B01221A70002000F038F8064800F002
:1000800019F8012000F032F8034800F013F800BF1F
:1000900080BD00BF0C000020C027090080B500AF64
:1000A000034B00221A70012000F020F800BF80BD31
:1000B0000C00002080B483B000AF786002E07B6861
:1000C000013B7B607B68002BF9D100BF0C37BD463C
:1000D00080BC704780B400AF034B1B68DBB218468E
:1000E000BD4680BC704700BF0808014080B483B0A3
:1000F00000AF78607B68012B06D10A4B1B68094A68
:1001000043F40053136008E07B68002B05D1054BD6
:100110001B68044A23F40053136000BF0C37BD462C
:1001200080BC70470C08014080B400AF0F4B1B68C7
:100130000E4A43F0040313600D4B1B680C4A23F472
:10014000700313600A4B0A4A1B681360094B1B6853
:10015000084A23F470031360064B1B68054A43F0FA
:100160002233136000BFBD4680BC704718100240A8
:10017000000801400408014080B500AF00F064F8B9
:10018000FFF74CFFFFF7D0FF00BF80BD80B500AF89
:10019000FFF7F2FF044B1B689847044B1B68984716
:1001A000034B1B689847F5E7180000201400002057
:1001B0000800002080B483B000AF78607B680A4AF2
:1001C0001360094B1A68094B1B689A4203D9084B04
:1001D000084A1A6002E0064B074A1A6000BF0C3753
:1001E000BD4680BC704700BF2000002000000020FA
:1001F00014000020FD0100082502000880B582B02F
:1002000000AF074B01221A7001237B6000233B6083
:100210007868FFF711FF00BF0837BD4680BD00BFFB
:100220001000002080B582B000AF064B00221A708B
:1002300000237B607868FFF7FFFE00BF0837BD46EC
:1002400080BD00BF1000002080B400AF034B044A03
:100250001A6000BFBD4680BC704700BF1800002078
:100260006502000880B582B000AFFFF733FF786009
:100270007868FFF79FFF034B00221A7000BF083712
:10028000BD4680BD1C00002080B500AF00F002F824
:1002900000BF80BD80B586B000AF1A4A1A4BD31A92
:1002A0007B601A4B7B61184B3B610023FB600AE0CB
:1002B0007A69531C7B613B69591C396112781A7049
:1002C000FB680133FB60FB687A689A42F0D8104AF9
:1002D000104BD31A3B600F4BBB600023FB6007E061
:1002E000BB685A1CBA6000221A70FB680133FB60BD
:1002F000FB683A689A42F3D8FFF748FF00BF183707
:10030000BD4680BD08000020000000201803000842
:08031000080000200800002095
:0803180014000000A0860100A2
:0400000508000000EF
:00000001FF
